{
  "_format": "hh-sol-artifact-1",
  "contractName": "NFT",
  "sourceName": "contracts/NFT.sol",
  "abi": [
    {
      "anonymous": false,
      "inputs": [
        {
          "indexed": true,
          "internalType": "address",
          "name": "owner",
          "type": "address"
        },
        {
          "indexed": true,
          "internalType": "address",
          "name": "approved",
          "type": "address"
        },
        {
          "indexed": true,
          "internalType": "uint256",
          "name": "tokenId",
          "type": "uint256"
        }
      ],
      "name": "Approval",
      "type": "event"
    },
    {
      "anonymous": false,
      "inputs": [
        {
          "indexed": true,
          "internalType": "address",
          "name": "owner",
          "type": "address"
        },
        {
          "indexed": true,
          "internalType": "address",
          "name": "operator",
          "type": "address"
        },
        {
          "indexed": false,
          "internalType": "bool",
          "name": "approved",
          "type": "bool"
        }
      ],
      "name": "ApprovalForAll",
      "type": "event"
    },
    {
      "anonymous": false,
      "inputs": [
        {
          "indexed": false,
          "internalType": "uint8",
          "name": "version",
          "type": "uint8"
        }
      ],
      "name": "Initialized",
      "type": "event"
    },
    {
      "anonymous": false,
      "inputs": [
        {
          "indexed": true,
          "internalType": "address",
          "name": "from",
          "type": "address"
        },
        {
          "indexed": true,
          "internalType": "address",
          "name": "to",
          "type": "address"
        },
        {
          "indexed": true,
          "internalType": "uint256",
          "name": "tokenId",
          "type": "uint256"
        }
      ],
      "name": "Transfer",
      "type": "event"
    },
    {
      "inputs": [
        {
          "internalType": "address",
          "name": "to",
          "type": "address"
        },
        {
          "internalType": "uint256",
          "name": "tokenId",
          "type": "uint256"
        }
      ],
      "name": "approve",
      "outputs": [],
      "stateMutability": "nonpayable",
      "type": "function"
    },
    {
      "inputs": [
        {
          "internalType": "address",
          "name": "owner",
          "type": "address"
        }
      ],
      "name": "balanceOf",
      "outputs": [
        {
          "internalType": "uint256",
          "name": "",
          "type": "uint256"
        }
      ],
      "stateMutability": "view",
      "type": "function"
    },
    {
      "inputs": [
        {
          "internalType": "address",
          "name": "_to",
          "type": "address"
        },
        {
          "internalType": "string",
          "name": "tokenURI",
          "type": "string"
        }
      ],
      "name": "createToken",
      "outputs": [
        {
          "internalType": "uint256",
          "name": "",
          "type": "uint256"
        }
      ],
      "stateMutability": "nonpayable",
      "type": "function"
    },
    {
      "inputs": [
        {
          "internalType": "uint256",
          "name": "tokenId",
          "type": "uint256"
        }
      ],
      "name": "getApproved",
      "outputs": [
        {
          "internalType": "address",
          "name": "",
          "type": "address"
        }
      ],
      "stateMutability": "view",
      "type": "function"
    },
    {
      "inputs": [],
      "name": "initialize",
      "outputs": [],
      "stateMutability": "nonpayable",
      "type": "function"
    },
    {
      "inputs": [
        {
          "internalType": "address",
          "name": "owner",
          "type": "address"
        },
        {
          "internalType": "address",
          "name": "operator",
          "type": "address"
        }
      ],
      "name": "isApprovedForAll",
      "outputs": [
        {
          "internalType": "bool",
          "name": "",
          "type": "bool"
        }
      ],
      "stateMutability": "view",
      "type": "function"
    },
    {
      "inputs": [],
      "name": "name",
      "outputs": [
        {
          "internalType": "string",
          "name": "",
          "type": "string"
        }
      ],
      "stateMutability": "view",
      "type": "function"
    },
    {
      "inputs": [
        {
          "internalType": "uint256",
          "name": "tokenId",
          "type": "uint256"
        }
      ],
      "name": "ownerOf",
      "outputs": [
        {
          "internalType": "address",
          "name": "",
          "type": "address"
        }
      ],
      "stateMutability": "view",
      "type": "function"
    },
    {
      "inputs": [
        {
          "internalType": "address",
          "name": "from",
          "type": "address"
        },
        {
          "internalType": "address",
          "name": "to",
          "type": "address"
        },
        {
          "internalType": "uint256",
          "name": "tokenId",
          "type": "uint256"
        }
      ],
      "name": "safeTransferFrom",
      "outputs": [],
      "stateMutability": "nonpayable",
      "type": "function"
    },
    {
      "inputs": [
        {
          "internalType": "address",
          "name": "from",
          "type": "address"
        },
        {
          "internalType": "address",
          "name": "to",
          "type": "address"
        },
        {
          "internalType": "uint256",
          "name": "tokenId",
          "type": "uint256"
        },
        {
          "internalType": "bytes",
          "name": "data",
          "type": "bytes"
        }
      ],
      "name": "safeTransferFrom",
      "outputs": [],
      "stateMutability": "nonpayable",
      "type": "function"
    },
    {
      "inputs": [
        {
          "internalType": "address",
          "name": "operator",
          "type": "address"
        },
        {
          "internalType": "bool",
          "name": "approved",
          "type": "bool"
        }
      ],
      "name": "setApprovalForAll",
      "outputs": [],
      "stateMutability": "nonpayable",
      "type": "function"
    },
    {
      "inputs": [
        {
          "internalType": "bytes4",
          "name": "interfaceId",
          "type": "bytes4"
        }
      ],
      "name": "supportsInterface",
      "outputs": [
        {
          "internalType": "bool",
          "name": "",
          "type": "bool"
        }
      ],
      "stateMutability": "view",
      "type": "function"
    },
    {
      "inputs": [],
      "name": "symbol",
      "outputs": [
        {
          "internalType": "string",
          "name": "",
          "type": "string"
        }
      ],
      "stateMutability": "view",
      "type": "function"
    },
    {
      "inputs": [
        {
          "internalType": "uint256",
          "name": "tokenId",
          "type": "uint256"
        }
      ],
      "name": "tokenURI",
      "outputs": [
        {
          "internalType": "string",
          "name": "",
          "type": "string"
        }
      ],
      "stateMutability": "view",
      "type": "function"
    },
    {
      "inputs": [
        {
          "internalType": "address",
          "name": "from",
          "type": "address"
        },
        {
          "internalType": "address",
          "name": "to",
          "type": "address"
        },
        {
          "internalType": "uint256",
          "name": "tokenId",
          "type": "uint256"
        }
      ],
      "name": "transferFrom",
      "outputs": [],
      "stateMutability": "nonpayable",
      "type": "function"
    }
  ],
  "bytecode": "0x608060405234801561001057600080fd5b50613082806100206000396000f3fe608060405234801561001057600080fd5b50600436106100f55760003560e01c80636352211e11610097578063a22cb46511610066578063a22cb46514610284578063b88d4fde146102a0578063c87b56dd146102bc578063e985e9c5146102ec576100f5565b80636352211e146101fc57806370a082311461022c5780638129fc1c1461025c57806395d89b4114610266576100f5565b8063081812fc116100d3578063081812fc14610178578063095ea7b3146101a857806323b872dd146101c457806342842e0e146101e0576100f5565b806301382807146100fa57806301ffc9a71461012a57806306fdde031461015a575b600080fd5b610114600480360381019061010f9190611e9f565b61031c565b6040516101219190611f14565b60405180910390f35b610144600480360381019061013f9190611f87565b610380565b6040516101519190611fcf565b60405180910390f35b610162610462565b60405161016f9190612069565b60405180910390f35b610192600480360381019061018d91906120b7565b6104f4565b60405161019f91906120f3565b60405180910390f35b6101c260048036038101906101bd919061210e565b61053a565b005b6101de60048036038101906101d9919061214e565b610651565b005b6101fa60048036038101906101f5919061214e565b6106b1565b005b610216600480360381019061021191906120b7565b6106d1565b60405161022391906120f3565b60405180910390f35b610246600480360381019061024191906121a1565b610757565b6040516102539190611f14565b60405180910390f35b61026461080e565b005b61026e6109f9565b60405161027b9190612069565b60405180910390f35b61029e600480360381019061029991906121fa565b610a8b565b005b6102ba60048036038101906102b591906122db565b610aa1565b005b6102d660048036038101906102d191906120b7565b610b03565b6040516102e39190612069565b60405180910390f35b6103066004803603810190610301919061235e565b610c15565b6040516103139190611fcf565b60405180910390f35b600061032860c9610ca9565b600061033460c9610cbf565b90506103408482610ccd565b61034a8184610eea565b61037660ca60009054906101000a900473ffffffffffffffffffffffffffffffffffffffff1682610f57565b8091505092915050565b60007f80ac58cd000000000000000000000000000000000000000000000000000000007bffffffffffffffffffffffffffffffffffffffffffffffffffffffff1916827bffffffffffffffffffffffffffffffffffffffffffffffffffffffff1916148061044b57507f5b5e139f000000000000000000000000000000000000000000000000000000007bffffffffffffffffffffffffffffffffffffffffffffffffffffffff1916827bffffffffffffffffffffffffffffffffffffffffffffffffffffffff1916145b8061045b575061045a82611010565b5b9050919050565b606060658054610471906123cd565b80601f016020809104026020016040519081016040528092919081815260200182805461049d906123cd565b80156104ea5780601f106104bf576101008083540402835291602001916104ea565b820191906000526020600020905b8154815290600101906020018083116104cd57829003601f168201915b5050505050905090565b60006104ff8261107a565b6069600083815260200190815260200160002060009054906101000a900473ffffffffffffffffffffffffffffffffffffffff169050919050565b6000610545826106d1565b90508073ffffffffffffffffffffffffffffffffffffffff168373ffffffffffffffffffffffffffffffffffffffff16036105b5576040517f08c379a00000000000000000000000000000000000000000000000000000000081526004016105ac90612470565b60405180910390fd5b8073ffffffffffffffffffffffffffffffffffffffff166105d46110c5565b73ffffffffffffffffffffffffffffffffffffffff1614806106035750610602816105fd6110c5565b610c15565b5b610642576040517f08c379a000000000000000000000000000000000000000000000000000000000815260040161063990612502565b60405180910390fd5b61064c8383610f57565b505050565b61066261065c6110c5565b826110cd565b6106a1576040517f08c379a000000000000000000000000000000000000000000000000000000000815260040161069890612594565b60405180910390fd5b6106ac838383611162565b505050565b6106cc83838360405180602001604052806000815250610aa1565b505050565b6000806106dd8361145b565b9050600073ffffffffffffffffffffffffffffffffffffffff168173ffffffffffffffffffffffffffffffffffffffff160361074e576040517f08c379a000000000000000000000000000000000000000000000000000000000815260040161074590612600565b60405180910390fd5b80915050919050565b60008073ffffffffffffffffffffffffffffffffffffffff168273ffffffffffffffffffffffffffffffffffffffff16036107c7576040517f08c379a00000000000000000000000000000000000000000000000000000000081526004016107be90612692565b60405180910390fd5b606860008373ffffffffffffffffffffffffffffffffffffffff1673ffffffffffffffffffffffffffffffffffffffff168152602001908152602001600020549050919050565b60008060019054906101000a900460ff1615905080801561083f5750600160008054906101000a900460ff1660ff16105b8061086c575061084e30611498565b15801561086b5750600160008054906101000a900460ff1660ff16145b5b6108ab576040517f08c379a00000000000000000000000000000000000000000000000000000000081526004016108a290612724565b60405180910390fd5b60016000806101000a81548160ff021916908360ff16021790555080156108e8576001600060016101000a81548160ff0219169083151502179055505b61095c6040518060400160405280600a81526020017f49435420546f6b656e73000000000000000000000000000000000000000000008152506040518060400160405280600381526020017f49435400000000000000000000000000000000000000000000000000000000008152506114bb565b3360ca60006101000a81548173ffffffffffffffffffffffffffffffffffffffff021916908373ffffffffffffffffffffffffffffffffffffffff16021790555080156109f65760008060016101000a81548160ff0219169083151502179055507f7f26b83ff96e1f2b6a682f133852f6798a09c465da95921460cefb384740249860016040516109ed9190612796565b60405180910390a15b50565b606060668054610a08906123cd565b80601f0160208091040260200160405190810160405280929190818152602001828054610a34906123cd565b8015610a815780601f10610a5657610100808354040283529160200191610a81565b820191906000526020600020905b815481529060010190602001808311610a6457829003601f168201915b5050505050905090565b610a9d610a966110c5565b8383611518565b5050565b610ab2610aac6110c5565b836110cd565b610af1576040517f08c379a0000000000000000000000000000000000000000000000000000000008152600401610ae890612594565b60405180910390fd5b610afd84848484611684565b50505050565b6060610b0e8261107a565b6000609760008481526020019081526020016000208054610b2e906123cd565b80601f0160208091040260200160405190810160405280929190818152602001828054610b5a906123cd565b8015610ba75780601f10610b7c57610100808354040283529160200191610ba7565b820191906000526020600020905b815481529060010190602001808311610b8a57829003601f168201915b505050505090506000610bb86116e0565b90506000815103610bcd578192505050610c10565b600082511115610c02578082604051602001610bea9291906127ed565b60405160208183030381529060405292505050610c10565b610c0b846116f7565b925050505b919050565b6000606a60008473ffffffffffffffffffffffffffffffffffffffff1673ffffffffffffffffffffffffffffffffffffffff16815260200190815260200160002060008373ffffffffffffffffffffffffffffffffffffffff1673ffffffffffffffffffffffffffffffffffffffff16815260200190815260200160002060009054906101000a900460ff16905092915050565b6001816000016000828254019250508190555050565b600081600001549050919050565b600073ffffffffffffffffffffffffffffffffffffffff168273ffffffffffffffffffffffffffffffffffffffff1603610d3c576040517f08c379a0000000000000000000000000000000000000000000000000000000008152600401610d339061285d565b60405180910390fd5b610d458161175f565b15610d85576040517f08c379a0000000000000000000000000000000000000000000000000000000008152600401610d7c906128c9565b60405180910390fd5b610d936000838360016117a0565b610d9c8161175f565b15610ddc576040517f08c379a0000000000000000000000000000000000000000000000000000000008152600401610dd3906128c9565b60405180910390fd5b6001606860008473ffffffffffffffffffffffffffffffffffffffff1673ffffffffffffffffffffffffffffffffffffffff16815260200190815260200160002060008282540192505081905550816067600083815260200190815260200160002060006101000a81548173ffffffffffffffffffffffffffffffffffffffff021916908373ffffffffffffffffffffffffffffffffffffffff160217905550808273ffffffffffffffffffffffffffffffffffffffff16600073ffffffffffffffffffffffffffffffffffffffff167fddf252ad1be2c89b69c2b068fc378daa952ba7f163c4a11628f55a4df523b3ef60405160405180910390a4610ee66000838360016118c6565b5050565b610ef38261175f565b610f32576040517f08c379a0000000000000000000000000000000000000000000000000000000008152600401610f299061295b565b60405180910390fd5b80609760008481526020019081526020016000209081610f529190612b1d565b505050565b816069600083815260200190815260200160002060006101000a81548173ffffffffffffffffffffffffffffffffffffffff021916908373ffffffffffffffffffffffffffffffffffffffff160217905550808273ffffffffffffffffffffffffffffffffffffffff16610fca836106d1565b73ffffffffffffffffffffffffffffffffffffffff167f8c5be1e5ebec7d5bd14f71427d1e84f3dd0314c0f7b2291e5b200ac8c7c3b92560405160405180910390a45050565b60007f01ffc9a7000000000000000000000000000000000000000000000000000000007bffffffffffffffffffffffffffffffffffffffffffffffffffffffff1916827bffffffffffffffffffffffffffffffffffffffffffffffffffffffff1916149050919050565b6110838161175f565b6110c2576040517f08c379a00000000000000000000000000000000000000000000000000000000081526004016110b990612600565b60405180910390fd5b50565b600033905090565b6000806110d9836106d1565b90508073ffffffffffffffffffffffffffffffffffffffff168473ffffffffffffffffffffffffffffffffffffffff16148061111b575061111a8185610c15565b5b8061115957508373ffffffffffffffffffffffffffffffffffffffff16611141846104f4565b73ffffffffffffffffffffffffffffffffffffffff16145b91505092915050565b8273ffffffffffffffffffffffffffffffffffffffff16611182826106d1565b73ffffffffffffffffffffffffffffffffffffffff16146111d8576040517f08c379a00000000000000000000000000000000000000000000000000000000081526004016111cf90612c61565b60405180910390fd5b600073ffffffffffffffffffffffffffffffffffffffff168273ffffffffffffffffffffffffffffffffffffffff1603611247576040517f08c379a000000000000000000000000000000000000000000000000000000000815260040161123e90612cf3565b60405180910390fd5b61125483838360016117a0565b8273ffffffffffffffffffffffffffffffffffffffff16611274826106d1565b73ffffffffffffffffffffffffffffffffffffffff16146112ca576040517f08c379a00000000000000000000000000000000000000000000000000000000081526004016112c190612c61565b60405180910390fd5b6069600082815260200190815260200160002060006101000a81549073ffffffffffffffffffffffffffffffffffffffff02191690556001606860008573ffffffffffffffffffffffffffffffffffffffff1673ffffffffffffffffffffffffffffffffffffffff168152602001908152602001600020600082825403925050819055506001606860008473ffffffffffffffffffffffffffffffffffffffff1673ffffffffffffffffffffffffffffffffffffffff16815260200190815260200160002060008282540192505081905550816067600083815260200190815260200160002060006101000a81548173ffffffffffffffffffffffffffffffffffffffff021916908373ffffffffffffffffffffffffffffffffffffffff160217905550808273ffffffffffffffffffffffffffffffffffffffff168473ffffffffffffffffffffffffffffffffffffffff167fddf252ad1be2c89b69c2b068fc378daa952ba7f163c4a11628f55a4df523b3ef60405160405180910390a461145683838360016118c6565b505050565b60006067600083815260200190815260200160002060009054906101000a900473ffffffffffffffffffffffffffffffffffffffff169050919050565b6000808273ffffffffffffffffffffffffffffffffffffffff163b119050919050565b600060019054906101000a900460ff1661150a576040517f08c379a000000000000000000000000000000000000000000000000000000000815260040161150190612d85565b60405180910390fd5b61151482826118cc565b5050565b8173ffffffffffffffffffffffffffffffffffffffff168373ffffffffffffffffffffffffffffffffffffffff1603611586576040517f08c379a000000000000000000000000000000000000000000000000000000000815260040161157d90612df1565b60405180910390fd5b80606a60008573ffffffffffffffffffffffffffffffffffffffff1673ffffffffffffffffffffffffffffffffffffffff16815260200190815260200160002060008473ffffffffffffffffffffffffffffffffffffffff1673ffffffffffffffffffffffffffffffffffffffff16815260200190815260200160002060006101000a81548160ff0219169083151502179055508173ffffffffffffffffffffffffffffffffffffffff168373ffffffffffffffffffffffffffffffffffffffff167f17307eab39ab6107e8899845ad3d59bd9653f200f220920489ca2b5937696c31836040516116779190611fcf565b60405180910390a3505050565b61168f848484611162565b61169b8484848461193f565b6116da576040517f08c379a00000000000000000000000000000000000000000000000000000000081526004016116d190612e83565b60405180910390fd5b50505050565b606060405180602001604052806000815250905090565b60606117028261107a565b600061170c6116e0565b9050600081511161172c5760405180602001604052806000815250611757565b8061173684611ac6565b6040516020016117479291906127ed565b6040516020818303038152906040525b915050919050565b60008073ffffffffffffffffffffffffffffffffffffffff166117818361145b565b73ffffffffffffffffffffffffffffffffffffffff1614159050919050565b60018111156118c057600073ffffffffffffffffffffffffffffffffffffffff168473ffffffffffffffffffffffffffffffffffffffff16146118345780606860008673ffffffffffffffffffffffffffffffffffffffff1673ffffffffffffffffffffffffffffffffffffffff168152602001908152602001600020600082825461182c9190612ed2565b925050819055505b600073ffffffffffffffffffffffffffffffffffffffff168373ffffffffffffffffffffffffffffffffffffffff16146118bf5780606860008573ffffffffffffffffffffffffffffffffffffffff1673ffffffffffffffffffffffffffffffffffffffff16815260200190815260200160002060008282546118b79190612f06565b925050819055505b5b50505050565b50505050565b600060019054906101000a900460ff1661191b576040517f08c379a000000000000000000000000000000000000000000000000000000000815260040161191290612d85565b60405180910390fd5b816065908161192a9190612b1d565b50806066908161193a9190612b1d565b505050565b60006119608473ffffffffffffffffffffffffffffffffffffffff16611498565b15611ab9578373ffffffffffffffffffffffffffffffffffffffff1663150b7a026119896110c5565b8786866040518563ffffffff1660e01b81526004016119ab9493929190612f8f565b6020604051808303816000875af19250505080156119e757506040513d601f19601f820116820180604052508101906119e49190612ff0565b60015b611a69573d8060008114611a17576040519150601f19603f3d011682016040523d82523d6000602084013e611a1c565b606091505b506000815103611a61576040517f08c379a0000000000000000000000000000000000000000000000000000000008152600401611a5890612e83565b60405180910390fd5b805181602001fd5b63150b7a0260e01b7bffffffffffffffffffffffffffffffffffffffffffffffffffffffff1916817bffffffffffffffffffffffffffffffffffffffffffffffffffffffff191614915050611abe565b600190505b949350505050565b606060006001611ad584611b94565b01905060008167ffffffffffffffff811115611af457611af3611d74565b5b6040519080825280601f01601f191660200182016040528015611b265781602001600182028036833780820191505090505b509050600082602001820190505b600115611b89578080600190039150507f3031323334353637383961626364656600000000000000000000000000000000600a86061a8153600a8581611b7d57611b7c61301d565b5b04945060008503611b34575b819350505050919050565b600080600090507a184f03e93ff9f4daa797ed6e38ed64bf6a1f0100000000000000008310611bf2577a184f03e93ff9f4daa797ed6e38ed64bf6a1f0100000000000000008381611be857611be761301d565b5b0492506040810190505b6d04ee2d6d415b85acef81000000008310611c2f576d04ee2d6d415b85acef81000000008381611c2557611c2461301d565b5b0492506020810190505b662386f26fc100008310611c5e57662386f26fc100008381611c5457611c5361301d565b5b0492506010810190505b6305f5e1008310611c87576305f5e1008381611c7d57611c7c61301d565b5b0492506008810190505b6127108310611cac576127108381611ca257611ca161301d565b5b0492506004810190505b60648310611ccf5760648381611cc557611cc461301d565b5b0492506002810190505b600a8310611cde576001810190505b80915050919050565b6000604051905090565b600080fd5b600080fd5b600073ffffffffffffffffffffffffffffffffffffffff82169050919050565b6000611d2682611cfb565b9050919050565b611d3681611d1b565b8114611d4157600080fd5b50565b600081359050611d5381611d2d565b92915050565b600080fd5b600080fd5b6000601f19601f8301169050919050565b7f4e487b7100000000000000000000000000000000000000000000000000000000600052604160045260246000fd5b611dac82611d63565b810181811067ffffffffffffffff82111715611dcb57611dca611d74565b5b80604052505050565b6000611dde611ce7565b9050611dea8282611da3565b919050565b600067ffffffffffffffff821115611e0a57611e09611d74565b5b611e1382611d63565b9050602081019050919050565b82818337600083830152505050565b6000611e42611e3d84611def565b611dd4565b905082815260208101848484011115611e5e57611e5d611d5e565b5b611e69848285611e20565b509392505050565b600082601f830112611e8657611e85611d59565b5b8135611e96848260208601611e2f565b91505092915050565b60008060408385031215611eb657611eb5611cf1565b5b6000611ec485828601611d44565b925050602083013567ffffffffffffffff811115611ee557611ee4611cf6565b5b611ef185828601611e71565b9150509250929050565b6000819050919050565b611f0e81611efb565b82525050565b6000602082019050611f296000830184611f05565b92915050565b60007fffffffff0000000000000000000000000000000000000000000000000000000082169050919050565b611f6481611f2f565b8114611f6f57600080fd5b50565b600081359050611f8181611f5b565b92915050565b600060208284031215611f9d57611f9c611cf1565b5b6000611fab84828501611f72565b91505092915050565b60008115159050919050565b611fc981611fb4565b82525050565b6000602082019050611fe46000830184611fc0565b92915050565b600081519050919050565b600082825260208201905092915050565b60005b83811015612024578082015181840152602081019050612009565b60008484015250505050565b600061203b82611fea565b6120458185611ff5565b9350612055818560208601612006565b61205e81611d63565b840191505092915050565b600060208201905081810360008301526120838184612030565b905092915050565b61209481611efb565b811461209f57600080fd5b50565b6000813590506120b18161208b565b92915050565b6000602082840312156120cd576120cc611cf1565b5b60006120db848285016120a2565b91505092915050565b6120ed81611d1b565b82525050565b600060208201905061210860008301846120e4565b92915050565b6000806040838503121561212557612124611cf1565b5b600061213385828601611d44565b9250506020612144858286016120a2565b9150509250929050565b60008060006060848603121561216757612166611cf1565b5b600061217586828701611d44565b935050602061218686828701611d44565b9250506040612197868287016120a2565b9150509250925092565b6000602082840312156121b7576121b6611cf1565b5b60006121c584828501611d44565b91505092915050565b6121d781611fb4565b81146121e257600080fd5b50565b6000813590506121f4816121ce565b92915050565b6000806040838503121561221157612210611cf1565b5b600061221f85828601611d44565b9250506020612230858286016121e5565b9150509250929050565b600067ffffffffffffffff82111561225557612254611d74565b5b61225e82611d63565b9050602081019050919050565b600061227e6122798461223a565b611dd4565b90508281526020810184848401111561229a57612299611d5e565b5b6122a5848285611e20565b509392505050565b600082601f8301126122c2576122c1611d59565b5b81356122d284826020860161226b565b91505092915050565b600080600080608085870312156122f5576122f4611cf1565b5b600061230387828801611d44565b945050602061231487828801611d44565b9350506040612325878288016120a2565b925050606085013567ffffffffffffffff81111561234657612345611cf6565b5b612352878288016122ad565b91505092959194509250565b6000806040838503121561237557612374611cf1565b5b600061238385828601611d44565b925050602061239485828601611d44565b9150509250929050565b7f4e487b7100000000000000000000000000000000000000000000000000000000600052602260045260246000fd5b600060028204905060018216806123e557607f821691505b6020821081036123f8576123f761239e565b5b50919050565b7f4552433732313a20617070726f76616c20746f2063757272656e74206f776e6560008201527f7200000000000000000000000000000000000000000000000000000000000000602082015250565b600061245a602183611ff5565b9150612465826123fe565b604082019050919050565b600060208201905081810360008301526124898161244d565b9050919050565b7f4552433732313a20617070726f76652063616c6c6572206973206e6f7420746f60008201527f6b656e206f776e6572206f7220617070726f76656420666f7220616c6c000000602082015250565b60006124ec603d83611ff5565b91506124f782612490565b604082019050919050565b6000602082019050818103600083015261251b816124df565b9050919050565b7f4552433732313a2063616c6c6572206973206e6f7420746f6b656e206f776e6560008201527f72206f7220617070726f76656400000000000000000000000000000000000000602082015250565b600061257e602d83611ff5565b915061258982612522565b604082019050919050565b600060208201905081810360008301526125ad81612571565b9050919050565b7f4552433732313a20696e76616c696420746f6b656e2049440000000000000000600082015250565b60006125ea601883611ff5565b91506125f5826125b4565b602082019050919050565b60006020820190508181036000830152612619816125dd565b9050919050565b7f4552433732313a2061646472657373207a65726f206973206e6f74206120766160008201527f6c6964206f776e65720000000000000000000000000000000000000000000000602082015250565b600061267c602983611ff5565b915061268782612620565b604082019050919050565b600060208201905081810360008301526126ab8161266f565b9050919050565b7f496e697469616c697a61626c653a20636f6e747261637420697320616c72656160008201527f647920696e697469616c697a6564000000000000000000000000000000000000602082015250565b600061270e602e83611ff5565b9150612719826126b2565b604082019050919050565b6000602082019050818103600083015261273d81612701565b9050919050565b6000819050919050565b600060ff82169050919050565b6000819050919050565b600061278061277b61277684612744565b61275b565b61274e565b9050919050565b61279081612765565b82525050565b60006020820190506127ab6000830184612787565b92915050565b600081905092915050565b60006127c782611fea565b6127d181856127b1565b93506127e1818560208601612006565b80840191505092915050565b60006127f982856127bc565b915061280582846127bc565b91508190509392505050565b7f4552433732313a206d696e7420746f20746865207a65726f2061646472657373600082015250565b6000612847602083611ff5565b915061285282612811565b602082019050919050565b600060208201905081810360008301526128768161283a565b9050919050565b7f4552433732313a20746f6b656e20616c7265616479206d696e74656400000000600082015250565b60006128b3601c83611ff5565b91506128be8261287d565b602082019050919050565b600060208201905081810360008301526128e2816128a6565b9050919050565b7f45524337323155524953746f726167653a2055524920736574206f66206e6f6e60008201527f6578697374656e7420746f6b656e000000000000000000000000000000000000602082015250565b6000612945602e83611ff5565b9150612950826128e9565b604082019050919050565b6000602082019050818103600083015261297481612938565b9050919050565b60008190508160005260206000209050919050565b60006020601f8301049050919050565b600082821b905092915050565b6000600883026129dd7fffffffffffffffffffffffffffffffffffffffffffffffffffffffffffffffff826129a0565b6129e786836129a0565b95508019841693508086168417925050509392505050565b6000612a1a612a15612a1084611efb565b61275b565b611efb565b9050919050565b6000819050919050565b612a34836129ff565b612a48612a4082612a21565b8484546129ad565b825550505050565b600090565b612a5d612a50565b612a68818484612a2b565b505050565b5b81811015612a8c57612a81600082612a55565b600181019050612a6e565b5050565b601f821115612ad157612aa28161297b565b612aab84612990565b81016020851015612aba578190505b612ace612ac685612990565b830182612a6d565b50505b505050565b600082821c905092915050565b6000612af460001984600802612ad6565b1980831691505092915050565b6000612b0d8383612ae3565b9150826002028217905092915050565b612b2682611fea565b67ffffffffffffffff811115612b3f57612b3e611d74565b5b612b4982546123cd565b612b54828285612a90565b600060209050601f831160018114612b875760008415612b75578287015190505b612b7f8582612b01565b865550612be7565b601f198416612b958661297b565b60005b82811015612bbd57848901518255600182019150602085019450602081019050612b98565b86831015612bda5784890151612bd6601f891682612ae3565b8355505b6001600288020188555050505b505050505050565b7f4552433732313a207472616e736665722066726f6d20696e636f72726563742060008201527f6f776e6572000000000000000000000000000000000000000000000000000000602082015250565b6000612c4b602583611ff5565b9150612c5682612bef565b604082019050919050565b60006020820190508181036000830152612c7a81612c3e565b9050919050565b7f4552433732313a207472616e7366657220746f20746865207a65726f2061646460008201527f7265737300000000000000000000000000000000000000000000000000000000602082015250565b6000612cdd602483611ff5565b9150612ce882612c81565b604082019050919050565b60006020820190508181036000830152612d0c81612cd0565b9050919050565b7f496e697469616c697a61626c653a20636f6e7472616374206973206e6f74206960008201527f6e697469616c697a696e67000000000000000000000000000000000000000000602082015250565b6000612d6f602b83611ff5565b9150612d7a82612d13565b604082019050919050565b60006020820190508181036000830152612d9e81612d62565b9050919050565b7f4552433732313a20617070726f766520746f2063616c6c657200000000000000600082015250565b6000612ddb601983611ff5565b9150612de682612da5565b602082019050919050565b60006020820190508181036000830152612e0a81612dce565b9050919050565b7f4552433732313a207472616e7366657220746f206e6f6e20455243373231526560008201527f63656976657220696d706c656d656e7465720000000000000000000000000000602082015250565b6000612e6d603283611ff5565b9150612e7882612e11565b604082019050919050565b60006020820190508181036000830152612e9c81612e60565b9050919050565b7f4e487b7100000000000000000000000000000000000000000000000000000000600052601160045260246000fd5b6000612edd82611efb565b9150612ee883611efb565b9250828203905081811115612f0057612eff612ea3565b5b92915050565b6000612f1182611efb565b9150612f1c83611efb565b9250828201905080821115612f3457612f33612ea3565b5b92915050565b600081519050919050565b600082825260208201905092915050565b6000612f6182612f3a565b612f6b8185612f45565b9350612f7b818560208601612006565b612f8481611d63565b840191505092915050565b6000608082019050612fa460008301876120e4565b612fb160208301866120e4565b612fbe6040830185611f05565b8181036060830152612fd08184612f56565b905095945050505050565b600081519050612fea81611f5b565b92915050565b60006020828403121561300657613005611cf1565b5b600061301484828501612fdb565b91505092915050565b7f4e487b7100000000000000000000000000000000000000000000000000000000600052601260045260246000fdfea2646970667358221220d9682f9f83b689bff87396f4cebb086dec4579c5da1a3544c70fdafe553bab4c64736f6c63430008110033",
  "linkReferences": {},
  "deployedLinkReferences": {}
}