{
  "_format": "hh-sol-artifact-1",
  "contractName": "QSOLTOKEN",
  "sourceName": "contracts/Token.sol",
  "abi": [
    {
      "anonymous": false,
      "inputs": [
        {
          "indexed": true,
          "internalType": "address",
          "name": "owner",
          "type": "address"
        },
        {
          "indexed": true,
          "internalType": "address",
          "name": "spender",
          "type": "address"
        },
        {
          "indexed": false,
          "internalType": "uint256",
          "name": "value",
          "type": "uint256"
        }
      ],
      "name": "Approval",
      "type": "event"
    },
    {
      "anonymous": false,
      "inputs": [
        {
          "indexed": false,
          "internalType": "uint8",
          "name": "version",
          "type": "uint8"
        }
      ],
      "name": "Initialized",
      "type": "event"
    },
    {
      "anonymous": false,
      "inputs": [
        {
          "indexed": true,
          "internalType": "address",
          "name": "from",
          "type": "address"
        },
        {
          "indexed": true,
          "internalType": "address",
          "name": "to",
          "type": "address"
        },
        {
          "indexed": false,
          "internalType": "uint256",
          "name": "value",
          "type": "uint256"
        }
      ],
      "name": "Transfer",
      "type": "event"
    },
    {
      "inputs": [
        {
          "internalType": "address",
          "name": "owner",
          "type": "address"
        },
        {
          "internalType": "address",
          "name": "spender",
          "type": "address"
        }
      ],
      "name": "allowance",
      "outputs": [
        {
          "internalType": "uint256",
          "name": "",
          "type": "uint256"
        }
      ],
      "stateMutability": "view",
      "type": "function"
    },
    {
      "inputs": [
        {
          "internalType": "address",
          "name": "spender",
          "type": "address"
        },
        {
          "internalType": "uint256",
          "name": "amount",
          "type": "uint256"
        }
      ],
      "name": "approve",
      "outputs": [
        {
          "internalType": "bool",
          "name": "",
          "type": "bool"
        }
      ],
      "stateMutability": "nonpayable",
      "type": "function"
    },
    {
      "inputs": [
        {
          "internalType": "address",
          "name": "account",
          "type": "address"
        }
      ],
      "name": "balanceOf",
      "outputs": [
        {
          "internalType": "uint256",
          "name": "",
          "type": "uint256"
        }
      ],
      "stateMutability": "view",
      "type": "function"
    },
    {
      "inputs": [],
      "name": "decimals",
      "outputs": [
        {
          "internalType": "uint8",
          "name": "",
          "type": "uint8"
        }
      ],
      "stateMutability": "view",
      "type": "function"
    },
    {
      "inputs": [
        {
          "internalType": "address",
          "name": "spender",
          "type": "address"
        },
        {
          "internalType": "uint256",
          "name": "subtractedValue",
          "type": "uint256"
        }
      ],
      "name": "decreaseAllowance",
      "outputs": [
        {
          "internalType": "bool",
          "name": "",
          "type": "bool"
        }
      ],
      "stateMutability": "nonpayable",
      "type": "function"
    },
    {
      "inputs": [
        {
          "internalType": "address",
          "name": "spender",
          "type": "address"
        },
        {
          "internalType": "uint256",
          "name": "addedValue",
          "type": "uint256"
        }
      ],
      "name": "increaseAllowance",
      "outputs": [
        {
          "internalType": "bool",
          "name": "",
          "type": "bool"
        }
      ],
      "stateMutability": "nonpayable",
      "type": "function"
    },
    {
      "inputs": [],
      "name": "initialize",
      "outputs": [],
      "stateMutability": "nonpayable",
      "type": "function"
    },
    {
      "inputs": [
        {
          "internalType": "address",
          "name": "_to",
          "type": "address"
        },
        {
          "internalType": "uint256",
          "name": "_amount",
          "type": "uint256"
        }
      ],
      "name": "mintToken",
      "outputs": [],
      "stateMutability": "nonpayable",
      "type": "function"
    },
    {
      "inputs": [],
      "name": "name",
      "outputs": [
        {
          "internalType": "string",
          "name": "",
          "type": "string"
        }
      ],
      "stateMutability": "view",
      "type": "function"
    },
    {
      "inputs": [],
      "name": "symbol",
      "outputs": [
        {
          "internalType": "string",
          "name": "",
          "type": "string"
        }
      ],
      "stateMutability": "view",
      "type": "function"
    },
    {
      "inputs": [],
      "name": "totalSupply",
      "outputs": [
        {
          "internalType": "uint256",
          "name": "",
          "type": "uint256"
        }
      ],
      "stateMutability": "view",
      "type": "function"
    },
    {
      "inputs": [
        {
          "internalType": "address",
          "name": "to",
          "type": "address"
        },
        {
          "internalType": "uint256",
          "name": "amount",
          "type": "uint256"
        }
      ],
      "name": "transfer",
      "outputs": [
        {
          "internalType": "bool",
          "name": "",
          "type": "bool"
        }
      ],
      "stateMutability": "nonpayable",
      "type": "function"
    },
    {
      "inputs": [
        {
          "internalType": "address",
          "name": "from",
          "type": "address"
        },
        {
          "internalType": "address",
          "name": "to",
          "type": "address"
        },
        {
          "internalType": "uint256",
          "name": "amount",
          "type": "uint256"
        }
      ],
      "name": "transferFrom",
      "outputs": [
        {
          "internalType": "bool",
          "name": "",
          "type": "bool"
        }
      ],
      "stateMutability": "nonpayable",
      "type": "function"
    }
  ],
  "bytecode": "0x608060405234801561001057600080fd5b50611b41806100206000396000f3fe608060405234801561001057600080fd5b50600436106100cf5760003560e01c806370a082311161008c57806395d89b411161006657806395d89b4114610214578063a457c2d714610232578063a9059cbb14610262578063dd62ed3e14610292576100cf565b806370a08231146101be57806379c65068146101ee5780638129fc1c1461020a576100cf565b806306fdde03146100d4578063095ea7b3146100f257806318160ddd1461012257806323b872dd14610140578063313ce56714610170578063395093511461018e575b600080fd5b6100dc6102c2565b6040516100e99190610f8b565b60405180910390f35b61010c60048036038101906101079190611046565b610354565b60405161011991906110a1565b60405180910390f35b61012a610377565b60405161013791906110cb565b60405180910390f35b61015a600480360381019061015591906110e6565b610381565b60405161016791906110a1565b60405180910390f35b6101786103b0565b6040516101859190611155565b60405180910390f35b6101a860048036038101906101a39190611046565b6103b9565b6040516101b591906110a1565b60405180910390f35b6101d860048036038101906101d39190611170565b6103f0565b6040516101e591906110cb565b60405180910390f35b61020860048036038101906102039190611046565b610439565b005b610212610474565b005b61021c61061e565b6040516102299190610f8b565b60405180910390f35b61024c60048036038101906102479190611046565b6106b0565b60405161025991906110a1565b60405180910390f35b61027c60048036038101906102779190611046565b610727565b60405161028991906110a1565b60405180910390f35b6102ac60048036038101906102a7919061119d565b61074a565b6040516102b991906110cb565b60405180910390f35b6060603680546102d19061120c565b80601f01602080910402602001604051908101604052809291908181526020018280546102fd9061120c565b801561034a5780601f1061031f5761010080835404028352916020019161034a565b820191906000526020600020905b81548152906001019060200180831161032d57829003601f168201915b5050505050905090565b60008061035f6107d1565b905061036c8185856107d9565b600191505092915050565b6000603554905090565b60008061038c6107d1565b90506103998582856109a2565b6103a4858585610a2e565b60019150509392505050565b60006012905090565b6000806103c46107d1565b90506103e58185856103d6858961074a565b6103e0919061126c565b6107d9565b600191505092915050565b6000603360008373ffffffffffffffffffffffffffffffffffffffff1673ffffffffffffffffffffffffffffffffffffffff168152602001908152602001600020549050919050565b6104438282610ca7565b61047082606560009054906101000a900473ffffffffffffffffffffffffffffffffffffffff16836107d9565b5050565b60008060019054906101000a900460ff161590508080156104a55750600160008054906101000a900460ff1660ff16105b806104d257506104b430610dfe565b1580156104d15750600160008054906101000a900460ff1660ff16145b5b610511576040517f08c379a000000000000000000000000000000000000000000000000000000000815260040161050890611312565b60405180910390fd5b60016000806101000a81548160ff021916908360ff160217905550801561054e576001600060016101000a81548160ff0219169083151502179055505b6105c26040518060400160405280600981526020017f51534f4c20436f696e00000000000000000000000000000000000000000000008152506040518060400160405280600481526020017f51534f4c00000000000000000000000000000000000000000000000000000000815250610e21565b801561061b5760008060016101000a81548160ff0219169083151502179055507f7f26b83ff96e1f2b6a682f133852f6798a09c465da95921460cefb384740249860016040516106129190611377565b60405180910390a15b50565b60606037805461062d9061120c565b80601f01602080910402602001604051908101604052809291908181526020018280546106599061120c565b80156106a65780601f1061067b576101008083540402835291602001916106a6565b820191906000526020600020905b81548152906001019060200180831161068957829003601f168201915b5050505050905090565b6000806106bb6107d1565b905060006106c9828661074a565b90508381101561070e576040517f08c379a000000000000000000000000000000000000000000000000000000000815260040161070590611404565b60405180910390fd5b61071b82868684036107d9565b60019250505092915050565b6000806107326107d1565b905061073f818585610a2e565b600191505092915050565b6000603460008473ffffffffffffffffffffffffffffffffffffffff1673ffffffffffffffffffffffffffffffffffffffff16815260200190815260200160002060008373ffffffffffffffffffffffffffffffffffffffff1673ffffffffffffffffffffffffffffffffffffffff16815260200190815260200160002054905092915050565b600033905090565b600073ffffffffffffffffffffffffffffffffffffffff168373ffffffffffffffffffffffffffffffffffffffff1603610848576040517f08c379a000000000000000000000000000000000000000000000000000000000815260040161083f90611496565b60405180910390fd5b600073ffffffffffffffffffffffffffffffffffffffff168273ffffffffffffffffffffffffffffffffffffffff16036108b7576040517f08c379a00000000000000000000000000000000000000000000000000000000081526004016108ae90611528565b60405180910390fd5b80603460008573ffffffffffffffffffffffffffffffffffffffff1673ffffffffffffffffffffffffffffffffffffffff16815260200190815260200160002060008473ffffffffffffffffffffffffffffffffffffffff1673ffffffffffffffffffffffffffffffffffffffff168152602001908152602001600020819055508173ffffffffffffffffffffffffffffffffffffffff168373ffffffffffffffffffffffffffffffffffffffff167f8c5be1e5ebec7d5bd14f71427d1e84f3dd0314c0f7b2291e5b200ac8c7c3b9258360405161099591906110cb565b60405180910390a3505050565b60006109ae848461074a565b90507fffffffffffffffffffffffffffffffffffffffffffffffffffffffffffffffff8114610a285781811015610a1a576040517f08c379a0000000000000000000000000000000000000000000000000000000008152600401610a1190611594565b60405180910390fd5b610a2784848484036107d9565b5b50505050565b600073ffffffffffffffffffffffffffffffffffffffff168373ffffffffffffffffffffffffffffffffffffffff1603610a9d576040517f08c379a0000000000000000000000000000000000000000000000000000000008152600401610a9490611626565b60405180910390fd5b600073ffffffffffffffffffffffffffffffffffffffff168273ffffffffffffffffffffffffffffffffffffffff1603610b0c576040517f08c379a0000000000000000000000000000000000000000000000000000000008152600401610b03906116b8565b60405180910390fd5b610b17838383610e7e565b6000603360008573ffffffffffffffffffffffffffffffffffffffff1673ffffffffffffffffffffffffffffffffffffffff16815260200190815260200160002054905081811015610b9e576040517f08c379a0000000000000000000000000000000000000000000000000000000008152600401610b959061174a565b60405180910390fd5b818103603360008673ffffffffffffffffffffffffffffffffffffffff1673ffffffffffffffffffffffffffffffffffffffff1681526020019081526020016000208190555081603360008573ffffffffffffffffffffffffffffffffffffffff1673ffffffffffffffffffffffffffffffffffffffff168152602001908152602001600020600082825401925050819055508273ffffffffffffffffffffffffffffffffffffffff168473ffffffffffffffffffffffffffffffffffffffff167fddf252ad1be2c89b69c2b068fc378daa952ba7f163c4a11628f55a4df523b3ef84604051610c8e91906110cb565b60405180910390a3610ca1848484610e83565b50505050565b600073ffffffffffffffffffffffffffffffffffffffff168273ffffffffffffffffffffffffffffffffffffffff1603610d16576040517f08c379a0000000000000000000000000000000000000000000000000000000008152600401610d0d906117b6565b60405180910390fd5b610d2260008383610e7e565b8060356000828254610d34919061126c565b9250508190555080603360008473ffffffffffffffffffffffffffffffffffffffff1673ffffffffffffffffffffffffffffffffffffffff168152602001908152602001600020600082825401925050819055508173ffffffffffffffffffffffffffffffffffffffff16600073ffffffffffffffffffffffffffffffffffffffff167fddf252ad1be2c89b69c2b068fc378daa952ba7f163c4a11628f55a4df523b3ef83604051610de691906110cb565b60405180910390a3610dfa60008383610e83565b5050565b6000808273ffffffffffffffffffffffffffffffffffffffff163b119050919050565b600060019054906101000a900460ff16610e70576040517f08c379a0000000000000000000000000000000000000000000000000000000008152600401610e6790611848565b60405180910390fd5b610e7a8282610e88565b5050565b505050565b505050565b600060019054906101000a900460ff16610ed7576040517f08c379a0000000000000000000000000000000000000000000000000000000008152600401610ece90611848565b60405180910390fd5b8160369081610ee69190611a39565b508060379081610ef69190611a39565b505050565b600081519050919050565b600082825260208201905092915050565b60005b83811015610f35578082015181840152602081019050610f1a565b60008484015250505050565b6000601f19601f8301169050919050565b6000610f5d82610efb565b610f678185610f06565b9350610f77818560208601610f17565b610f8081610f41565b840191505092915050565b60006020820190508181036000830152610fa58184610f52565b905092915050565b600080fd5b600073ffffffffffffffffffffffffffffffffffffffff82169050919050565b6000610fdd82610fb2565b9050919050565b610fed81610fd2565b8114610ff857600080fd5b50565b60008135905061100a81610fe4565b92915050565b6000819050919050565b61102381611010565b811461102e57600080fd5b50565b6000813590506110408161101a565b92915050565b6000806040838503121561105d5761105c610fad565b5b600061106b85828601610ffb565b925050602061107c85828601611031565b9150509250929050565b60008115159050919050565b61109b81611086565b82525050565b60006020820190506110b66000830184611092565b92915050565b6110c581611010565b82525050565b60006020820190506110e060008301846110bc565b92915050565b6000806000606084860312156110ff576110fe610fad565b5b600061110d86828701610ffb565b935050602061111e86828701610ffb565b925050604061112f86828701611031565b9150509250925092565b600060ff82169050919050565b61114f81611139565b82525050565b600060208201905061116a6000830184611146565b92915050565b60006020828403121561118657611185610fad565b5b600061119484828501610ffb565b91505092915050565b600080604083850312156111b4576111b3610fad565b5b60006111c285828601610ffb565b92505060206111d385828601610ffb565b9150509250929050565b7f4e487b7100000000000000000000000000000000000000000000000000000000600052602260045260246000fd5b6000600282049050600182168061122457607f821691505b602082108103611237576112366111dd565b5b50919050565b7f4e487b7100000000000000000000000000000000000000000000000000000000600052601160045260246000fd5b600061127782611010565b915061128283611010565b925082820190508082111561129a5761129961123d565b5b92915050565b7f496e697469616c697a61626c653a20636f6e747261637420697320616c72656160008201527f647920696e697469616c697a6564000000000000000000000000000000000000602082015250565b60006112fc602e83610f06565b9150611307826112a0565b604082019050919050565b6000602082019050818103600083015261132b816112ef565b9050919050565b6000819050919050565b6000819050919050565b600061136161135c61135784611332565b61133c565b611139565b9050919050565b61137181611346565b82525050565b600060208201905061138c6000830184611368565b92915050565b7f45524332303a2064656372656173656420616c6c6f77616e63652062656c6f7760008201527f207a65726f000000000000000000000000000000000000000000000000000000602082015250565b60006113ee602583610f06565b91506113f982611392565b604082019050919050565b6000602082019050818103600083015261141d816113e1565b9050919050565b7f45524332303a20617070726f76652066726f6d20746865207a65726f2061646460008201527f7265737300000000000000000000000000000000000000000000000000000000602082015250565b6000611480602483610f06565b915061148b82611424565b604082019050919050565b600060208201905081810360008301526114af81611473565b9050919050565b7f45524332303a20617070726f766520746f20746865207a65726f20616464726560008201527f7373000000000000000000000000000000000000000000000000000000000000602082015250565b6000611512602283610f06565b915061151d826114b6565b604082019050919050565b6000602082019050818103600083015261154181611505565b9050919050565b7f45524332303a20696e73756666696369656e7420616c6c6f77616e6365000000600082015250565b600061157e601d83610f06565b915061158982611548565b602082019050919050565b600060208201905081810360008301526115ad81611571565b9050919050565b7f45524332303a207472616e736665722066726f6d20746865207a65726f20616460008201527f6472657373000000000000000000000000000000000000000000000000000000602082015250565b6000611610602583610f06565b915061161b826115b4565b604082019050919050565b6000602082019050818103600083015261163f81611603565b9050919050565b7f45524332303a207472616e7366657220746f20746865207a65726f206164647260008201527f6573730000000000000000000000000000000000000000000000000000000000602082015250565b60006116a2602383610f06565b91506116ad82611646565b604082019050919050565b600060208201905081810360008301526116d181611695565b9050919050565b7f45524332303a207472616e7366657220616d6f756e742065786365656473206260008201527f616c616e63650000000000000000000000000000000000000000000000000000602082015250565b6000611734602683610f06565b915061173f826116d8565b604082019050919050565b6000602082019050818103600083015261176381611727565b9050919050565b7f45524332303a206d696e7420746f20746865207a65726f206164647265737300600082015250565b60006117a0601f83610f06565b91506117ab8261176a565b602082019050919050565b600060208201905081810360008301526117cf81611793565b9050919050565b7f496e697469616c697a61626c653a20636f6e7472616374206973206e6f74206960008201527f6e697469616c697a696e67000000000000000000000000000000000000000000602082015250565b6000611832602b83610f06565b915061183d826117d6565b604082019050919050565b6000602082019050818103600083015261186181611825565b9050919050565b7f4e487b7100000000000000000000000000000000000000000000000000000000600052604160045260246000fd5b60008190508160005260206000209050919050565b60006020601f8301049050919050565b600082821b905092915050565b6000600883026118f97fffffffffffffffffffffffffffffffffffffffffffffffffffffffffffffffff826118bc565b61190386836118bc565b95508019841693508086168417925050509392505050565b600061193661193161192c84611010565b61133c565b611010565b9050919050565b6000819050919050565b6119508361191b565b61196461195c8261193d565b8484546118c9565b825550505050565b600090565b61197961196c565b611984818484611947565b505050565b5b818110156119a85761199d600082611971565b60018101905061198a565b5050565b601f8211156119ed576119be81611897565b6119c7846118ac565b810160208510156119d6578190505b6119ea6119e2856118ac565b830182611989565b50505b505050565b600082821c905092915050565b6000611a10600019846008026119f2565b1980831691505092915050565b6000611a2983836119ff565b9150826002028217905092915050565b611a4282610efb565b67ffffffffffffffff811115611a5b57611a5a611868565b5b611a65825461120c565b611a708282856119ac565b600060209050601f831160018114611aa35760008415611a91578287015190505b611a9b8582611a1d565b865550611b03565b601f198416611ab186611897565b60005b82811015611ad957848901518255600182019150602085019450602081019050611ab4565b86831015611af65784890151611af2601f8916826119ff565b8355505b6001600288020188555050505b50505050505056fea2646970667358221220fe69ce4102827ec6560adf7a302e8304c342fb1c7dccd31783fb21acb76e0c8364736f6c63430008110033",
  "linkReferences": {},
  "deployedLinkReferences": {}
}