{
  "_format": "hh-sol-artifact-1",
  "contractName": "QSOLTOKEN",
  "sourceName": "contracts/Token.sol",
  "abi": [
    {
      "anonymous": false,
      "inputs": [
        {
          "indexed": true,
          "internalType": "address",
          "name": "owner",
          "type": "address"
        },
        {
          "indexed": true,
          "internalType": "address",
          "name": "spender",
          "type": "address"
        },
        {
          "indexed": false,
          "internalType": "uint256",
          "name": "value",
          "type": "uint256"
        }
      ],
      "name": "Approval",
      "type": "event"
    },
    {
      "anonymous": false,
      "inputs": [
        {
          "indexed": false,
          "internalType": "uint8",
          "name": "version",
          "type": "uint8"
        }
      ],
      "name": "Initialized",
      "type": "event"
    },
    {
      "anonymous": false,
      "inputs": [
        {
          "indexed": false,
          "internalType": "address",
          "name": "account",
          "type": "address"
        }
      ],
      "name": "Paused",
      "type": "event"
    },
    {
      "anonymous": false,
      "inputs": [
        {
          "indexed": true,
          "internalType": "bytes32",
          "name": "role",
          "type": "bytes32"
        },
        {
          "indexed": true,
          "internalType": "bytes32",
          "name": "previousAdminRole",
          "type": "bytes32"
        },
        {
          "indexed": true,
          "internalType": "bytes32",
          "name": "newAdminRole",
          "type": "bytes32"
        }
      ],
      "name": "RoleAdminChanged",
      "type": "event"
    },
    {
      "anonymous": false,
      "inputs": [
        {
          "indexed": true,
          "internalType": "bytes32",
          "name": "role",
          "type": "bytes32"
        },
        {
          "indexed": true,
          "internalType": "address",
          "name": "account",
          "type": "address"
        },
        {
          "indexed": true,
          "internalType": "address",
          "name": "sender",
          "type": "address"
        }
      ],
      "name": "RoleGranted",
      "type": "event"
    },
    {
      "anonymous": false,
      "inputs": [
        {
          "indexed": true,
          "internalType": "bytes32",
          "name": "role",
          "type": "bytes32"
        },
        {
          "indexed": true,
          "internalType": "address",
          "name": "account",
          "type": "address"
        },
        {
          "indexed": true,
          "internalType": "address",
          "name": "sender",
          "type": "address"
        }
      ],
      "name": "RoleRevoked",
      "type": "event"
    },
    {
      "anonymous": false,
      "inputs": [
        {
          "indexed": true,
          "internalType": "address",
          "name": "from",
          "type": "address"
        },
        {
          "indexed": true,
          "internalType": "address",
          "name": "to",
          "type": "address"
        },
        {
          "indexed": false,
          "internalType": "uint256",
          "name": "value",
          "type": "uint256"
        }
      ],
      "name": "Transfer",
      "type": "event"
    },
    {
      "anonymous": false,
      "inputs": [
        {
          "indexed": false,
          "internalType": "address",
          "name": "account",
          "type": "address"
        }
      ],
      "name": "Unpaused",
      "type": "event"
    },
    {
      "inputs": [],
      "name": "DEFAULT_ADMIN_ROLE",
      "outputs": [
        {
          "internalType": "bytes32",
          "name": "",
          "type": "bytes32"
        }
      ],
      "stateMutability": "view",
      "type": "function"
    },
    {
      "inputs": [],
      "name": "MINTER_ROLE",
      "outputs": [
        {
          "internalType": "bytes32",
          "name": "",
          "type": "bytes32"
        }
      ],
      "stateMutability": "view",
      "type": "function"
    },
    {
      "inputs": [],
      "name": "PAUSER_ROLE",
      "outputs": [
        {
          "internalType": "bytes32",
          "name": "",
          "type": "bytes32"
        }
      ],
      "stateMutability": "view",
      "type": "function"
    },
    {
      "inputs": [
        {
          "internalType": "address",
          "name": "owner",
          "type": "address"
        },
        {
          "internalType": "address",
          "name": "spender",
          "type": "address"
        }
      ],
      "name": "allowance",
      "outputs": [
        {
          "internalType": "uint256",
          "name": "",
          "type": "uint256"
        }
      ],
      "stateMutability": "view",
      "type": "function"
    },
    {
      "inputs": [
        {
          "internalType": "address",
          "name": "spender",
          "type": "address"
        },
        {
          "internalType": "uint256",
          "name": "amount",
          "type": "uint256"
        }
      ],
      "name": "approve",
      "outputs": [
        {
          "internalType": "bool",
          "name": "",
          "type": "bool"
        }
      ],
      "stateMutability": "nonpayable",
      "type": "function"
    },
    {
      "inputs": [
        {
          "internalType": "address",
          "name": "account",
          "type": "address"
        }
      ],
      "name": "balanceOf",
      "outputs": [
        {
          "internalType": "uint256",
          "name": "",
          "type": "uint256"
        }
      ],
      "stateMutability": "view",
      "type": "function"
    },
    {
      "inputs": [
        {
          "internalType": "uint256",
          "name": "amount",
          "type": "uint256"
        }
      ],
      "name": "burn",
      "outputs": [],
      "stateMutability": "nonpayable",
      "type": "function"
    },
    {
      "inputs": [
        {
          "internalType": "address",
          "name": "account",
          "type": "address"
        },
        {
          "internalType": "uint256",
          "name": "amount",
          "type": "uint256"
        }
      ],
      "name": "burnFrom",
      "outputs": [],
      "stateMutability": "nonpayable",
      "type": "function"
    },
    {
      "inputs": [],
      "name": "decimals",
      "outputs": [
        {
          "internalType": "uint8",
          "name": "",
          "type": "uint8"
        }
      ],
      "stateMutability": "view",
      "type": "function"
    },
    {
      "inputs": [
        {
          "internalType": "address",
          "name": "spender",
          "type": "address"
        },
        {
          "internalType": "uint256",
          "name": "subtractedValue",
          "type": "uint256"
        }
      ],
      "name": "decreaseAllowance",
      "outputs": [
        {
          "internalType": "bool",
          "name": "",
          "type": "bool"
        }
      ],
      "stateMutability": "nonpayable",
      "type": "function"
    },
    {
      "inputs": [
        {
          "internalType": "bytes32",
          "name": "role",
          "type": "bytes32"
        }
      ],
      "name": "getRoleAdmin",
      "outputs": [
        {
          "internalType": "bytes32",
          "name": "",
          "type": "bytes32"
        }
      ],
      "stateMutability": "view",
      "type": "function"
    },
    {
      "inputs": [
        {
          "internalType": "bytes32",
          "name": "role",
          "type": "bytes32"
        },
        {
          "internalType": "uint256",
          "name": "index",
          "type": "uint256"
        }
      ],
      "name": "getRoleMember",
      "outputs": [
        {
          "internalType": "address",
          "name": "",
          "type": "address"
        }
      ],
      "stateMutability": "view",
      "type": "function"
    },
    {
      "inputs": [
        {
          "internalType": "bytes32",
          "name": "role",
          "type": "bytes32"
        }
      ],
      "name": "getRoleMemberCount",
      "outputs": [
        {
          "internalType": "uint256",
          "name": "",
          "type": "uint256"
        }
      ],
      "stateMutability": "view",
      "type": "function"
    },
    {
      "inputs": [
        {
          "internalType": "bytes32",
          "name": "role",
          "type": "bytes32"
        },
        {
          "internalType": "address",
          "name": "account",
          "type": "address"
        }
      ],
      "name": "grantRole",
      "outputs": [],
      "stateMutability": "nonpayable",
      "type": "function"
    },
    {
      "inputs": [
        {
          "internalType": "bytes32",
          "name": "role",
          "type": "bytes32"
        },
        {
          "internalType": "address",
          "name": "account",
          "type": "address"
        }
      ],
      "name": "hasRole",
      "outputs": [
        {
          "internalType": "bool",
          "name": "",
          "type": "bool"
        }
      ],
      "stateMutability": "view",
      "type": "function"
    },
    {
      "inputs": [
        {
          "internalType": "address",
          "name": "spender",
          "type": "address"
        },
        {
          "internalType": "uint256",
          "name": "addedValue",
          "type": "uint256"
        }
      ],
      "name": "increaseAllowance",
      "outputs": [
        {
          "internalType": "bool",
          "name": "",
          "type": "bool"
        }
      ],
      "stateMutability": "nonpayable",
      "type": "function"
    },
    {
      "inputs": [
        {
          "internalType": "string",
          "name": "name_",
          "type": "string"
        },
        {
          "internalType": "string",
          "name": "symbol_",
          "type": "string"
        }
      ],
      "name": "initialize",
      "outputs": [],
      "stateMutability": "nonpayable",
      "type": "function"
    },
    {
      "inputs": [
        {
          "internalType": "address",
          "name": "to",
          "type": "address"
        },
        {
          "internalType": "uint256",
          "name": "amount",
          "type": "uint256"
        }
      ],
      "name": "mint",
      "outputs": [],
      "stateMutability": "nonpayable",
      "type": "function"
    },
    {
      "inputs": [
        {
          "internalType": "address",
          "name": "_to",
          "type": "address"
        },
        {
          "internalType": "uint256",
          "name": "_amount",
          "type": "uint256"
        }
      ],
      "name": "mintToken",
      "outputs": [],
      "stateMutability": "nonpayable",
      "type": "function"
    },
    {
      "inputs": [],
      "name": "name",
      "outputs": [
        {
          "internalType": "string",
          "name": "",
          "type": "string"
        }
      ],
      "stateMutability": "view",
      "type": "function"
    },
    {
      "inputs": [],
      "name": "pause",
      "outputs": [],
      "stateMutability": "nonpayable",
      "type": "function"
    },
    {
      "inputs": [],
      "name": "paused",
      "outputs": [
        {
          "internalType": "bool",
          "name": "",
          "type": "bool"
        }
      ],
      "stateMutability": "view",
      "type": "function"
    },
    {
      "inputs": [
        {
          "internalType": "bytes32",
          "name": "role",
          "type": "bytes32"
        },
        {
          "internalType": "address",
          "name": "account",
          "type": "address"
        }
      ],
      "name": "renounceRole",
      "outputs": [],
      "stateMutability": "nonpayable",
      "type": "function"
    },
    {
      "inputs": [
        {
          "internalType": "bytes32",
          "name": "role",
          "type": "bytes32"
        },
        {
          "internalType": "address",
          "name": "account",
          "type": "address"
        }
      ],
      "name": "revokeRole",
      "outputs": [],
      "stateMutability": "nonpayable",
      "type": "function"
    },
    {
      "inputs": [
        {
          "internalType": "bytes4",
          "name": "interfaceId",
          "type": "bytes4"
        }
      ],
      "name": "supportsInterface",
      "outputs": [
        {
          "internalType": "bool",
          "name": "",
          "type": "bool"
        }
      ],
      "stateMutability": "view",
      "type": "function"
    },
    {
      "inputs": [],
      "name": "symbol",
      "outputs": [
        {
          "internalType": "string",
          "name": "",
          "type": "string"
        }
      ],
      "stateMutability": "view",
      "type": "function"
    },
    {
      "inputs": [],
      "name": "totalSupply",
      "outputs": [
        {
          "internalType": "uint256",
          "name": "",
          "type": "uint256"
        }
      ],
      "stateMutability": "view",
      "type": "function"
    },
    {
      "inputs": [
        {
          "internalType": "address",
          "name": "to",
          "type": "address"
        },
        {
          "internalType": "uint256",
          "name": "amount",
          "type": "uint256"
        }
      ],
      "name": "transfer",
      "outputs": [
        {
          "internalType": "bool",
          "name": "",
          "type": "bool"
        }
      ],
      "stateMutability": "nonpayable",
      "type": "function"
    },
    {
      "inputs": [
        {
          "internalType": "address",
          "name": "from",
          "type": "address"
        },
        {
          "internalType": "address",
          "name": "to",
          "type": "address"
        },
        {
          "internalType": "uint256",
          "name": "amount",
          "type": "uint256"
        }
      ],
      "name": "transferFrom",
      "outputs": [
        {
          "internalType": "bool",
          "name": "",
          "type": "bool"
        }
      ],
      "stateMutability": "nonpayable",
      "type": "function"
    },
    {
      "inputs": [],
      "name": "unpause",
      "outputs": [],
      "stateMutability": "nonpayable",
      "type": "function"
    }
  ],
  "bytecode": "0x608060405234801561001057600080fd5b50613ab5806100206000396000f3fe608060405234801561001057600080fd5b50600436106101da5760003560e01c806370a0823111610104578063a217fddf116100a2578063d539139311610071578063d53913931461057b578063d547741f14610599578063dd62ed3e146105b5578063e63ab1e9146105e5576101da565b8063a217fddf146104cd578063a457c2d7146104eb578063a9059cbb1461051b578063ca15c8731461054b576101da565b80638456cb59116100de5780638456cb59146104455780639010d07c1461044f57806391d148541461047f57806395d89b41146104af576101da565b806370a08231146103dd57806379c650681461040d57806379cc679014610429576101da565b8063313ce5671161017c57806340c10f191161014b57806340c10f191461036b57806342966c68146103875780634cd88b76146103a35780635c975abb146103bf576101da565b8063313ce567146102f757806336568abe1461031557806339509351146103315780633f4ba83a14610361576101da565b806318160ddd116101b857806318160ddd1461025d57806323b872dd1461027b578063248a9ca3146102ab5780632f2ff15d146102db576101da565b806301ffc9a7146101df57806306fdde031461020f578063095ea7b31461022d575b600080fd5b6101f960048036038101906101f49190612418565b610603565b6040516102069190612460565b60405180910390f35b61021761067d565b604051610224919061250b565b60405180910390f35b610247600480360381019061024291906125c1565b61070f565b6040516102549190612460565b60405180910390f35b610265610732565b6040516102729190612610565b60405180910390f35b6102956004803603810190610290919061262b565b61073c565b6040516102a29190612460565b60405180910390f35b6102c560048036038101906102c091906126b4565b61076b565b6040516102d291906126f0565b60405180910390f35b6102f560048036038101906102f0919061270b565b61078b565b005b6102ff6107ac565b60405161030c9190612767565b60405180910390f35b61032f600480360381019061032a919061270b565b6107b5565b005b61034b600480360381019061034691906125c1565b610838565b6040516103589190612460565b60405180910390f35b61036961086f565b005b610385600480360381019061038091906125c1565b6108e9565b005b6103a1600480360381019061039c9190612782565b610967565b005b6103bd60048036038101906103b891906128e4565b61097b565b005b6103c7610aff565b6040516103d49190612460565b60405180910390f35b6103f760048036038101906103f2919061295c565b610b17565b6040516104049190612610565b60405180910390f35b610427600480360381019061042291906125c1565b610b60565b005b610443600480360381019061043e91906125c1565b610b9c565b005b61044d610bbc565b005b61046960048036038101906104649190612989565b610c36565b60405161047691906129d8565b60405180910390f35b6104996004803603810190610494919061270b565b610c65565b6040516104a69190612460565b60405180910390f35b6104b7610cd0565b6040516104c4919061250b565b60405180910390f35b6104d5610d62565b6040516104e291906126f0565b60405180910390f35b610505600480360381019061050091906125c1565b610d69565b6040516105129190612460565b60405180910390f35b610535600480360381019061053091906125c1565b610de0565b6040516105429190612460565b60405180910390f35b610565600480360381019061056091906126b4565b610e03565b6040516105729190612610565b60405180910390f35b610583610e27565b60405161059091906126f0565b60405180910390f35b6105b360048036038101906105ae919061270b565b610e4b565b005b6105cf60048036038101906105ca91906129f3565b610e6c565b6040516105dc9190612610565b60405180910390f35b6105ed610ef3565b6040516105fa91906126f0565b60405180910390f35b60007f5a05180f000000000000000000000000000000000000000000000000000000007bffffffffffffffffffffffffffffffffffffffffffffffffffffffff1916827bffffffffffffffffffffffffffffffffffffffffffffffffffffffff19161480610676575061067582610f17565b5b9050919050565b606060cc805461068c90612a62565b80601f01602080910402602001604051908101604052809291908181526020018280546106b890612a62565b80156107055780601f106106da57610100808354040283529160200191610705565b820191906000526020600020905b8154815290600101906020018083116106e857829003601f168201915b5050505050905090565b60008061071a610f91565b9050610727818585610f99565b600191505092915050565b600060cb54905090565b600080610747610f91565b9050610754858285611162565b61075f8585856111ee565b60019150509392505050565b600060656000838152602001908152602001600020600101549050919050565b6107948261076b565b61079d81611467565b6107a7838361147b565b505050565b60006012905090565b6107bd610f91565b73ffffffffffffffffffffffffffffffffffffffff168173ffffffffffffffffffffffffffffffffffffffff161461082a576040517f08c379a000000000000000000000000000000000000000000000000000000000815260040161082190612b05565b60405180910390fd5b61083482826114af565b5050565b600080610843610f91565b90506108648185856108558589610e6c565b61085f9190612b54565b610f99565b600191505092915050565b6108a07f65d7a28e3265b37a6474929f336521b332c1681b933f6cb9f3376673440d862a61089b610f91565b610c65565b6108df576040517f08c379a00000000000000000000000000000000000000000000000000000000081526004016108d690612bfa565b60405180910390fd5b6108e76114e3565b565b61091a7f9f2df0fed2c77648de5860a4cc508cd0818c85b8b8a1ab4ceeef8d981c8956a6610915610f91565b610c65565b610959576040517f08c379a000000000000000000000000000000000000000000000000000000000815260040161095090612c8c565b60405180910390fd5b6109638282611547565b5050565b610978610972610f91565b8261169e565b50565b60008060019054906101000a900460ff161590508080156109ac5750600160008054906101000a900460ff1660ff16105b806109d957506109bb3061186d565b1580156109d85750600160008054906101000a900460ff1660ff16145b5b610a18576040517f08c379a0000000000000000000000000000000000000000000000000000000008152600401610a0f90612d1e565b60405180910390fd5b60016000806101000a81548160ff021916908360ff1602179055508015610a55576001600060016101000a81548160ff0219169083151502179055505b610a5f8383611890565b336101c360006101000a81548173ffffffffffffffffffffffffffffffffffffffff021916908373ffffffffffffffffffffffffffffffffffffffff1602179055508015610afa5760008060016101000a81548160ff0219169083151502179055507f7f26b83ff96e1f2b6a682f133852f6798a09c465da95921460cefb38474024986001604051610af19190612d83565b60405180910390a15b505050565b600061012d60009054906101000a900460ff16905090565b600060c960008373ffffffffffffffffffffffffffffffffffffffff1673ffffffffffffffffffffffffffffffffffffffff168152602001908152602001600020549050919050565b610b6a8282611547565b610b98826101c360009054906101000a900473ffffffffffffffffffffffffffffffffffffffff1683610f99565b5050565b610bae82610ba8610f91565b83611162565b610bb8828261169e565b5050565b610bed7f65d7a28e3265b37a6474929f336521b332c1681b933f6cb9f3376673440d862a610be8610f91565b610c65565b610c2c576040517f08c379a0000000000000000000000000000000000000000000000000000000008152600401610c2390612e10565b60405180910390fd5b610c346118ff565b565b6000610c5d826097600086815260200190815260200160002061196390919063ffffffff16565b905092915050565b60006065600084815260200190815260200160002060000160008373ffffffffffffffffffffffffffffffffffffffff1673ffffffffffffffffffffffffffffffffffffffff16815260200190815260200160002060009054906101000a900460ff16905092915050565b606060cd8054610cdf90612a62565b80601f0160208091040260200160405190810160405280929190818152602001828054610d0b90612a62565b8015610d585780601f10610d2d57610100808354040283529160200191610d58565b820191906000526020600020905b815481529060010190602001808311610d3b57829003601f168201915b5050505050905090565b6000801b81565b600080610d74610f91565b90506000610d828286610e6c565b905083811015610dc7576040517f08c379a0000000000000000000000000000000000000000000000000000000008152600401610dbe90612ea2565b60405180910390fd5b610dd48286868403610f99565b60019250505092915050565b600080610deb610f91565b9050610df88185856111ee565b600191505092915050565b6000610e206097600084815260200190815260200160002061197d565b9050919050565b7f9f2df0fed2c77648de5860a4cc508cd0818c85b8b8a1ab4ceeef8d981c8956a681565b610e548261076b565b610e5d81611467565b610e6783836114af565b505050565b600060ca60008473ffffffffffffffffffffffffffffffffffffffff1673ffffffffffffffffffffffffffffffffffffffff16815260200190815260200160002060008373ffffffffffffffffffffffffffffffffffffffff1673ffffffffffffffffffffffffffffffffffffffff16815260200190815260200160002054905092915050565b7f65d7a28e3265b37a6474929f336521b332c1681b933f6cb9f3376673440d862a81565b60007f7965db0b000000000000000000000000000000000000000000000000000000007bffffffffffffffffffffffffffffffffffffffffffffffffffffffff1916827bffffffffffffffffffffffffffffffffffffffffffffffffffffffff19161480610f8a5750610f8982611992565b5b9050919050565b600033905090565b600073ffffffffffffffffffffffffffffffffffffffff168373ffffffffffffffffffffffffffffffffffffffff1603611008576040517f08c379a0000000000000000000000000000000000000000000000000000000008152600401610fff90612f34565b60405180910390fd5b600073ffffffffffffffffffffffffffffffffffffffff168273ffffffffffffffffffffffffffffffffffffffff1603611077576040517f08c379a000000000000000000000000000000000000000000000000000000000815260040161106e90612fc6565b60405180910390fd5b8060ca60008573ffffffffffffffffffffffffffffffffffffffff1673ffffffffffffffffffffffffffffffffffffffff16815260200190815260200160002060008473ffffffffffffffffffffffffffffffffffffffff1673ffffffffffffffffffffffffffffffffffffffff168152602001908152602001600020819055508173ffffffffffffffffffffffffffffffffffffffff168373ffffffffffffffffffffffffffffffffffffffff167f8c5be1e5ebec7d5bd14f71427d1e84f3dd0314c0f7b2291e5b200ac8c7c3b925836040516111559190612610565b60405180910390a3505050565b600061116e8484610e6c565b90507fffffffffffffffffffffffffffffffffffffffffffffffffffffffffffffffff81146111e857818110156111da576040517f08c379a00000000000000000000000000000000000000000000000000000000081526004016111d190613032565b60405180910390fd5b6111e78484848403610f99565b5b50505050565b600073ffffffffffffffffffffffffffffffffffffffff168373ffffffffffffffffffffffffffffffffffffffff160361125d576040517f08c379a0000000000000000000000000000000000000000000000000000000008152600401611254906130c4565b60405180910390fd5b600073ffffffffffffffffffffffffffffffffffffffff168273ffffffffffffffffffffffffffffffffffffffff16036112cc576040517f08c379a00000000000000000000000000000000000000000000000000000000081526004016112c390613156565b60405180910390fd5b6112d78383836119fc565b600060c960008573ffffffffffffffffffffffffffffffffffffffff1673ffffffffffffffffffffffffffffffffffffffff1681526020019081526020016000205490508181101561135e576040517f08c379a0000000000000000000000000000000000000000000000000000000008152600401611355906131e8565b60405180910390fd5b81810360c960008673ffffffffffffffffffffffffffffffffffffffff1673ffffffffffffffffffffffffffffffffffffffff168152602001908152602001600020819055508160c960008573ffffffffffffffffffffffffffffffffffffffff1673ffffffffffffffffffffffffffffffffffffffff168152602001908152602001600020600082825401925050819055508273ffffffffffffffffffffffffffffffffffffffff168473ffffffffffffffffffffffffffffffffffffffff167fddf252ad1be2c89b69c2b068fc378daa952ba7f163c4a11628f55a4df523b3ef8460405161144e9190612610565b60405180910390a3611461848484611a0c565b50505050565b61147881611473610f91565b611a11565b50565b6114858282611a96565b6114aa8160976000858152602001908152602001600020611b7790919063ffffffff16565b505050565b6114b98282611ba7565b6114de8160976000858152602001908152602001600020611c8990919063ffffffff16565b505050565b6114eb611cb9565b600061012d60006101000a81548160ff0219169083151502179055507f5db9ee0a495bf2e6ff9c91a7834c1ba4fdd244a5e8aa4e537bd38aeae4b073aa611530610f91565b60405161153d91906129d8565b60405180910390a1565b600073ffffffffffffffffffffffffffffffffffffffff168273ffffffffffffffffffffffffffffffffffffffff16036115b6576040517f08c379a00000000000000000000000000000000000000000000000000000000081526004016115ad90613254565b60405180910390fd5b6115c2600083836119fc565b8060cb60008282546115d49190612b54565b925050819055508060c960008473ffffffffffffffffffffffffffffffffffffffff1673ffffffffffffffffffffffffffffffffffffffff168152602001908152602001600020600082825401925050819055508173ffffffffffffffffffffffffffffffffffffffff16600073ffffffffffffffffffffffffffffffffffffffff167fddf252ad1be2c89b69c2b068fc378daa952ba7f163c4a11628f55a4df523b3ef836040516116869190612610565b60405180910390a361169a60008383611a0c565b5050565b600073ffffffffffffffffffffffffffffffffffffffff168273ffffffffffffffffffffffffffffffffffffffff160361170d576040517f08c379a0000000000000000000000000000000000000000000000000000000008152600401611704906132e6565b60405180910390fd5b611719826000836119fc565b600060c960008473ffffffffffffffffffffffffffffffffffffffff1673ffffffffffffffffffffffffffffffffffffffff168152602001908152602001600020549050818110156117a0576040517f08c379a000000000000000000000000000000000000000000000000000000000815260040161179790613378565b60405180910390fd5b81810360c960008573ffffffffffffffffffffffffffffffffffffffff1673ffffffffffffffffffffffffffffffffffffffff168152602001908152602001600020819055508160cb60008282540392505081905550600073ffffffffffffffffffffffffffffffffffffffff168373ffffffffffffffffffffffffffffffffffffffff167fddf252ad1be2c89b69c2b068fc378daa952ba7f163c4a11628f55a4df523b3ef846040516118549190612610565b60405180910390a361186883600084611a0c565b505050565b6000808273ffffffffffffffffffffffffffffffffffffffff163b119050919050565b600060019054906101000a900460ff166118df576040517f08c379a00000000000000000000000000000000000000000000000000000000081526004016118d69061340a565b60405180910390fd5b6118e98282611d02565b6118f1611d75565b6118fb8282611de2565b5050565b611907611eab565b600161012d60006101000a81548160ff0219169083151502179055507f62e78cea01bee320cd4e420270b5ea74000d11b0c9f74754ebdbfc544b05a25861194c610f91565b60405161195991906129d8565b60405180910390a1565b60006119728360000183611ef5565b60001c905092915050565b600061198b82600001611f20565b9050919050565b60007f01ffc9a7000000000000000000000000000000000000000000000000000000007bffffffffffffffffffffffffffffffffffffffffffffffffffffffff1916827bffffffffffffffffffffffffffffffffffffffffffffffffffffffff1916149050919050565b611a07838383611f31565b505050565b505050565b611a1b8282610c65565b611a9257611a2881611f89565b611a368360001c6020611fb6565b604051602001611a479291906134fe565b6040516020818303038152906040526040517f08c379a0000000000000000000000000000000000000000000000000000000008152600401611a89919061250b565b60405180910390fd5b5050565b611aa08282610c65565b611b735760016065600084815260200190815260200160002060000160008373ffffffffffffffffffffffffffffffffffffffff1673ffffffffffffffffffffffffffffffffffffffff16815260200190815260200160002060006101000a81548160ff021916908315150217905550611b18610f91565b73ffffffffffffffffffffffffffffffffffffffff168173ffffffffffffffffffffffffffffffffffffffff16837f2f8788117e7eff1d82e926ec794901d17c78024a50270940304540a733656f0d60405160405180910390a45b5050565b6000611b9f836000018373ffffffffffffffffffffffffffffffffffffffff1660001b6121f2565b905092915050565b611bb18282610c65565b15611c855760006065600084815260200190815260200160002060000160008373ffffffffffffffffffffffffffffffffffffffff1673ffffffffffffffffffffffffffffffffffffffff16815260200190815260200160002060006101000a81548160ff021916908315150217905550611c2a610f91565b73ffffffffffffffffffffffffffffffffffffffff168173ffffffffffffffffffffffffffffffffffffffff16837ff6391f5c32d9c69d2a47ea670b442974b53935d1edc7fd64eb21e047a839171b60405160405180910390a45b5050565b6000611cb1836000018373ffffffffffffffffffffffffffffffffffffffff1660001b612262565b905092915050565b611cc1610aff565b611d00576040517f08c379a0000000000000000000000000000000000000000000000000000000008152600401611cf790613584565b60405180910390fd5b565b600060019054906101000a900460ff16611d51576040517f08c379a0000000000000000000000000000000000000000000000000000000008152600401611d489061340a565b60405180910390fd5b8160cc9081611d609190613746565b508060cd9081611d709190613746565b505050565b600060019054906101000a900460ff16611dc4576040517f08c379a0000000000000000000000000000000000000000000000000000000008152600401611dbb9061340a565b60405180910390fd5b600061012d60006101000a81548160ff021916908315150217905550565b600060019054906101000a900460ff16611e31576040517f08c379a0000000000000000000000000000000000000000000000000000000008152600401611e289061340a565b60405180910390fd5b611e456000801b611e40610f91565b612376565b611e767f9f2df0fed2c77648de5860a4cc508cd0818c85b8b8a1ab4ceeef8d981c8956a6611e71610f91565b612376565b611ea77f65d7a28e3265b37a6474929f336521b332c1681b933f6cb9f3376673440d862a611ea2610f91565b612376565b5050565b611eb3610aff565b15611ef3576040517f08c379a0000000000000000000000000000000000000000000000000000000008152600401611eea90613864565b60405180910390fd5b565b6000826000018281548110611f0d57611f0c613884565b5b9060005260206000200154905092915050565b600081600001805490509050919050565b611f3c838383612384565b611f44610aff565b15611f84576040517f08c379a0000000000000000000000000000000000000000000000000000000008152600401611f7b90613925565b60405180910390fd5b505050565b6060611faf8273ffffffffffffffffffffffffffffffffffffffff16601460ff16611fb6565b9050919050565b606060006002836002611fc99190613945565b611fd39190612b54565b67ffffffffffffffff811115611fec57611feb6127b9565b5b6040519080825280601f01601f19166020018201604052801561201e5781602001600182028036833780820191505090505b5090507f30000000000000000000000000000000000000000000000000000000000000008160008151811061205657612055613884565b5b60200101907effffffffffffffffffffffffffffffffffffffffffffffffffffffffffffff1916908160001a9053507f7800000000000000000000000000000000000000000000000000000000000000816001815181106120ba576120b9613884565b5b60200101907effffffffffffffffffffffffffffffffffffffffffffffffffffffffffffff1916908160001a905350600060018460026120fa9190613945565b6121049190612b54565b90505b60018111156121a4577f3031323334353637383961626364656600000000000000000000000000000000600f86166010811061214657612145613884565b5b1a60f81b82828151811061215d5761215c613884565b5b60200101907effffffffffffffffffffffffffffffffffffffffffffffffffffffffffffff1916908160001a905350600485901c94508061219d90613987565b9050612107565b50600084146121e8576040517f08c379a00000000000000000000000000000000000000000000000000000000081526004016121df906139fc565b60405180910390fd5b8091505092915050565b60006121fe8383612389565b61225757826000018290806001815401808255809150506001900390600052602060002001600090919091909150558260000180549050836001016000848152602001908152602001600020819055506001905061225c565b600090505b92915050565b6000808360010160008481526020019081526020016000205490506000811461236a5760006001826122949190613a1c565b90506000600186600001805490506122ac9190613a1c565b905081811461231b5760008660000182815481106122cd576122cc613884565b5b90600052602060002001549050808760000184815481106122f1576122f0613884565b5b90600052602060002001819055508387600101600083815260200190815260200160002081905550505b8560000180548061232f5761232e613a50565b5b600190038181906000526020600020016000905590558560010160008681526020019081526020016000206000905560019350505050612370565b60009150505b92915050565b612380828261147b565b5050565b505050565b600080836001016000848152602001908152602001600020541415905092915050565b6000604051905090565b600080fd5b600080fd5b60007fffffffff0000000000000000000000000000000000000000000000000000000082169050919050565b6123f5816123c0565b811461240057600080fd5b50565b600081359050612412816123ec565b92915050565b60006020828403121561242e5761242d6123b6565b5b600061243c84828501612403565b91505092915050565b60008115159050919050565b61245a81612445565b82525050565b60006020820190506124756000830184612451565b92915050565b600081519050919050565b600082825260208201905092915050565b60005b838110156124b557808201518184015260208101905061249a565b60008484015250505050565b6000601f19601f8301169050919050565b60006124dd8261247b565b6124e78185612486565b93506124f7818560208601612497565b612500816124c1565b840191505092915050565b6000602082019050818103600083015261252581846124d2565b905092915050565b600073ffffffffffffffffffffffffffffffffffffffff82169050919050565b60006125588261252d565b9050919050565b6125688161254d565b811461257357600080fd5b50565b6000813590506125858161255f565b92915050565b6000819050919050565b61259e8161258b565b81146125a957600080fd5b50565b6000813590506125bb81612595565b92915050565b600080604083850312156125d8576125d76123b6565b5b60006125e685828601612576565b92505060206125f7858286016125ac565b9150509250929050565b61260a8161258b565b82525050565b60006020820190506126256000830184612601565b92915050565b600080600060608486031215612644576126436123b6565b5b600061265286828701612576565b935050602061266386828701612576565b9250506040612674868287016125ac565b9150509250925092565b6000819050919050565b6126918161267e565b811461269c57600080fd5b50565b6000813590506126ae81612688565b92915050565b6000602082840312156126ca576126c96123b6565b5b60006126d88482850161269f565b91505092915050565b6126ea8161267e565b82525050565b600060208201905061270560008301846126e1565b92915050565b60008060408385031215612722576127216123b6565b5b60006127308582860161269f565b925050602061274185828601612576565b9150509250929050565b600060ff82169050919050565b6127618161274b565b82525050565b600060208201905061277c6000830184612758565b92915050565b600060208284031215612798576127976123b6565b5b60006127a6848285016125ac565b91505092915050565b600080fd5b600080fd5b7f4e487b7100000000000000000000000000000000000000000000000000000000600052604160045260246000fd5b6127f1826124c1565b810181811067ffffffffffffffff821117156128105761280f6127b9565b5b80604052505050565b60006128236123ac565b905061282f82826127e8565b919050565b600067ffffffffffffffff82111561284f5761284e6127b9565b5b612858826124c1565b9050602081019050919050565b82818337600083830152505050565b600061288761288284612834565b612819565b9050828152602081018484840111156128a3576128a26127b4565b5b6128ae848285612865565b509392505050565b600082601f8301126128cb576128ca6127af565b5b81356128db848260208601612874565b91505092915050565b600080604083850312156128fb576128fa6123b6565b5b600083013567ffffffffffffffff811115612919576129186123bb565b5b612925858286016128b6565b925050602083013567ffffffffffffffff811115612946576129456123bb565b5b612952858286016128b6565b9150509250929050565b600060208284031215612972576129716123b6565b5b600061298084828501612576565b91505092915050565b600080604083850312156129a05761299f6123b6565b5b60006129ae8582860161269f565b92505060206129bf858286016125ac565b9150509250929050565b6129d28161254d565b82525050565b60006020820190506129ed60008301846129c9565b92915050565b60008060408385031215612a0a57612a096123b6565b5b6000612a1885828601612576565b9250506020612a2985828601612576565b9150509250929050565b7f4e487b7100000000000000000000000000000000000000000000000000000000600052602260045260246000fd5b60006002820490506001821680612a7a57607f821691505b602082108103612a8d57612a8c612a33565b5b50919050565b7f416363657373436f6e74726f6c3a2063616e206f6e6c792072656e6f756e636560008201527f20726f6c657320666f722073656c660000000000000000000000000000000000602082015250565b6000612aef602f83612486565b9150612afa82612a93565b604082019050919050565b60006020820190508181036000830152612b1e81612ae2565b9050919050565b7f4e487b7100000000000000000000000000000000000000000000000000000000600052601160045260246000fd5b6000612b5f8261258b565b9150612b6a8361258b565b9250828201905080821115612b8257612b81612b25565b5b92915050565b7f45524332305072657365744d696e7465725061757365723a206d75737420686160008201527f76652070617573657220726f6c6520746f20756e706175736500000000000000602082015250565b6000612be4603983612486565b9150612bef82612b88565b604082019050919050565b60006020820190508181036000830152612c1381612bd7565b9050919050565b7f45524332305072657365744d696e7465725061757365723a206d75737420686160008201527f7665206d696e74657220726f6c6520746f206d696e7400000000000000000000602082015250565b6000612c76603683612486565b9150612c8182612c1a565b604082019050919050565b60006020820190508181036000830152612ca581612c69565b9050919050565b7f496e697469616c697a61626c653a20636f6e747261637420697320616c72656160008201527f647920696e697469616c697a6564000000000000000000000000000000000000602082015250565b6000612d08602e83612486565b9150612d1382612cac565b604082019050919050565b60006020820190508181036000830152612d3781612cfb565b9050919050565b6000819050919050565b6000819050919050565b6000612d6d612d68612d6384612d3e565b612d48565b61274b565b9050919050565b612d7d81612d52565b82525050565b6000602082019050612d986000830184612d74565b92915050565b7f45524332305072657365744d696e7465725061757365723a206d75737420686160008201527f76652070617573657220726f6c6520746f207061757365000000000000000000602082015250565b6000612dfa603783612486565b9150612e0582612d9e565b604082019050919050565b60006020820190508181036000830152612e2981612ded565b9050919050565b7f45524332303a2064656372656173656420616c6c6f77616e63652062656c6f7760008201527f207a65726f000000000000000000000000000000000000000000000000000000602082015250565b6000612e8c602583612486565b9150612e9782612e30565b604082019050919050565b60006020820190508181036000830152612ebb81612e7f565b9050919050565b7f45524332303a20617070726f76652066726f6d20746865207a65726f2061646460008201527f7265737300000000000000000000000000000000000000000000000000000000602082015250565b6000612f1e602483612486565b9150612f2982612ec2565b604082019050919050565b60006020820190508181036000830152612f4d81612f11565b9050919050565b7f45524332303a20617070726f766520746f20746865207a65726f20616464726560008201527f7373000000000000000000000000000000000000000000000000000000000000602082015250565b6000612fb0602283612486565b9150612fbb82612f54565b604082019050919050565b60006020820190508181036000830152612fdf81612fa3565b9050919050565b7f45524332303a20696e73756666696369656e7420616c6c6f77616e6365000000600082015250565b600061301c601d83612486565b915061302782612fe6565b602082019050919050565b6000602082019050818103600083015261304b8161300f565b9050919050565b7f45524332303a207472616e736665722066726f6d20746865207a65726f20616460008201527f6472657373000000000000000000000000000000000000000000000000000000602082015250565b60006130ae602583612486565b91506130b982613052565b604082019050919050565b600060208201905081810360008301526130dd816130a1565b9050919050565b7f45524332303a207472616e7366657220746f20746865207a65726f206164647260008201527f6573730000000000000000000000000000000000000000000000000000000000602082015250565b6000613140602383612486565b915061314b826130e4565b604082019050919050565b6000602082019050818103600083015261316f81613133565b9050919050565b7f45524332303a207472616e7366657220616d6f756e742065786365656473206260008201527f616c616e63650000000000000000000000000000000000000000000000000000602082015250565b60006131d2602683612486565b91506131dd82613176565b604082019050919050565b60006020820190508181036000830152613201816131c5565b9050919050565b7f45524332303a206d696e7420746f20746865207a65726f206164647265737300600082015250565b600061323e601f83612486565b915061324982613208565b602082019050919050565b6000602082019050818103600083015261326d81613231565b9050919050565b7f45524332303a206275726e2066726f6d20746865207a65726f2061646472657360008201527f7300000000000000000000000000000000000000000000000000000000000000602082015250565b60006132d0602183612486565b91506132db82613274565b604082019050919050565b600060208201905081810360008301526132ff816132c3565b9050919050565b7f45524332303a206275726e20616d6f756e7420657863656564732062616c616e60008201527f6365000000000000000000000000000000000000000000000000000000000000602082015250565b6000613362602283612486565b915061336d82613306565b604082019050919050565b6000602082019050818103600083015261339181613355565b9050919050565b7f496e697469616c697a61626c653a20636f6e7472616374206973206e6f74206960008201527f6e697469616c697a696e67000000000000000000000000000000000000000000602082015250565b60006133f4602b83612486565b91506133ff82613398565b604082019050919050565b60006020820190508181036000830152613423816133e7565b9050919050565b600081905092915050565b7f416363657373436f6e74726f6c3a206163636f756e7420000000000000000000600082015250565b600061346b60178361342a565b915061347682613435565b601782019050919050565b600061348c8261247b565b613496818561342a565b93506134a6818560208601612497565b80840191505092915050565b7f206973206d697373696e6720726f6c6520000000000000000000000000000000600082015250565b60006134e860118361342a565b91506134f3826134b2565b601182019050919050565b60006135098261345e565b91506135158285613481565b9150613520826134db565b915061352c8284613481565b91508190509392505050565b7f5061757361626c653a206e6f7420706175736564000000000000000000000000600082015250565b600061356e601483612486565b915061357982613538565b602082019050919050565b6000602082019050818103600083015261359d81613561565b9050919050565b60008190508160005260206000209050919050565b60006020601f8301049050919050565b600082821b905092915050565b6000600883026136067fffffffffffffffffffffffffffffffffffffffffffffffffffffffffffffffff826135c9565b61361086836135c9565b95508019841693508086168417925050509392505050565b600061364361363e6136398461258b565b612d48565b61258b565b9050919050565b6000819050919050565b61365d83613628565b6136716136698261364a565b8484546135d6565b825550505050565b600090565b613686613679565b613691818484613654565b505050565b5b818110156136b5576136aa60008261367e565b600181019050613697565b5050565b601f8211156136fa576136cb816135a4565b6136d4846135b9565b810160208510156136e3578190505b6136f76136ef856135b9565b830182613696565b50505b505050565b600082821c905092915050565b600061371d600019846008026136ff565b1980831691505092915050565b6000613736838361370c565b9150826002028217905092915050565b61374f8261247b565b67ffffffffffffffff811115613768576137676127b9565b5b6137728254612a62565b61377d8282856136b9565b600060209050601f8311600181146137b0576000841561379e578287015190505b6137a8858261372a565b865550613810565b601f1984166137be866135a4565b60005b828110156137e6578489015182556001820191506020850194506020810190506137c1565b8683101561380357848901516137ff601f89168261370c565b8355505b6001600288020188555050505b505050505050565b7f5061757361626c653a2070617573656400000000000000000000000000000000600082015250565b600061384e601083612486565b915061385982613818565b602082019050919050565b6000602082019050818103600083015261387d81613841565b9050919050565b7f4e487b7100000000000000000000000000000000000000000000000000000000600052603260045260246000fd5b7f45524332305061757361626c653a20746f6b656e207472616e7366657220776860008201527f696c652070617573656400000000000000000000000000000000000000000000602082015250565b600061390f602a83612486565b915061391a826138b3565b604082019050919050565b6000602082019050818103600083015261393e81613902565b9050919050565b60006139508261258b565b915061395b8361258b565b92508282026139698161258b565b915082820484148315176139805761397f612b25565b5b5092915050565b60006139928261258b565b9150600082036139a5576139a4612b25565b5b600182039050919050565b7f537472696e67733a20686578206c656e67746820696e73756666696369656e74600082015250565b60006139e6602083612486565b91506139f1826139b0565b602082019050919050565b60006020820190508181036000830152613a15816139d9565b9050919050565b6000613a278261258b565b9150613a328361258b565b9250828203905081811115613a4a57613a49612b25565b5b92915050565b7f4e487b7100000000000000000000000000000000000000000000000000000000600052603160045260246000fdfea264697066735822122047a2bb57af044a303fbac4198ff6c5a47de2d6df3330f5a0b72b58c8286e874064736f6c63430008110033",
  "linkReferences": {},
  "deployedLinkReferences": {}
}